{
  "contractName": "JointAccountDApp",
  "abi": [
    {
      "anonymous": false,
      "inputs": [
        {
          "indexed": false,
          "internalType": "uint256",
          "name": "user1",
          "type": "uint256"
        },
        {
          "indexed": false,
          "internalType": "uint256",
          "name": "user2",
          "type": "uint256"
        }
      ],
      "name": "AccountClosed",
      "type": "event"
    },
    {
      "anonymous": false,
      "inputs": [
        {
          "indexed": false,
          "internalType": "uint256",
          "name": "user1",
          "type": "uint256"
        },
        {
          "indexed": false,
          "internalType": "uint256",
          "name": "user2",
          "type": "uint256"
        },
        {
          "indexed": false,
          "internalType": "uint256",
          "name": "balance",
          "type": "uint256"
        }
      ],
      "name": "AccountCreated",
      "type": "event"
    },
    {
      "anonymous": false,
      "inputs": [
        {
          "indexed": false,
          "internalType": "uint256",
          "name": "fromUser",
          "type": "uint256"
        },
        {
          "indexed": false,
          "internalType": "uint256",
          "name": "toUser",
          "type": "uint256"
        },
        {
          "indexed": false,
          "internalType": "uint256",
          "name": "amount",
          "type": "uint256"
        }
      ],
      "name": "AmountTransferred",
      "type": "event"
    },
    {
      "anonymous": false,
      "inputs": [],
      "name": "StateReset",
      "type": "event"
    },
    {
      "anonymous": false,
      "inputs": [
        {
          "indexed": false,
          "internalType": "uint256",
          "name": "id",
          "type": "uint256"
        },
        {
          "indexed": false,
          "internalType": "string",
          "name": "name",
          "type": "string"
        }
      ],
      "name": "UserRegistered",
      "type": "event"
    },
    {
      "inputs": [
        {
          "internalType": "uint256",
          "name": "",
          "type": "uint256"
        },
        {
          "internalType": "uint256",
          "name": "",
          "type": "uint256"
        }
      ],
      "name": "jointAccounts",
      "outputs": [
        {
          "internalType": "uint256",
          "name": "user1Balance",
          "type": "uint256"
        },
        {
          "internalType": "uint256",
          "name": "user2Balance",
          "type": "uint256"
        }
      ],
      "stateMutability": "view",
      "type": "function",
      "constant": true
    },
    {
      "inputs": [
        {
          "internalType": "uint256",
          "name": "",
          "type": "uint256"
        },
        {
          "internalType": "uint256",
          "name": "",
          "type": "uint256"
        }
      ],
      "name": "userConnections",
      "outputs": [
        {
          "internalType": "uint256",
          "name": "",
          "type": "uint256"
        }
      ],
      "stateMutability": "view",
      "type": "function",
      "constant": true
    },
    {
      "inputs": [
        {
          "internalType": "uint256",
          "name": "",
          "type": "uint256"
        }
      ],
      "name": "users",
      "outputs": [
        {
          "internalType": "uint256",
          "name": "id",
          "type": "uint256"
        },
        {
          "internalType": "string",
          "name": "name",
          "type": "string"
        },
        {
          "internalType": "bool",
          "name": "exists",
          "type": "bool"
        }
      ],
      "stateMutability": "view",
      "type": "function",
      "constant": true
    },
    {
      "inputs": [
        {
          "internalType": "uint256",
          "name": "id",
          "type": "uint256"
        },
        {
          "internalType": "string",
          "name": "userName",
          "type": "string"
        }
      ],
      "name": "registerUser",
      "outputs": [],
      "stateMutability": "nonpayable",
      "type": "function"
    },
    {
      "inputs": [
        {
          "internalType": "uint256",
          "name": "id",
          "type": "uint256"
        }
      ],
      "name": "checkAccountExists",
      "outputs": [
        {
          "internalType": "bool",
          "name": "",
          "type": "bool"
        }
      ],
      "stateMutability": "view",
      "type": "function",
      "constant": true
    },
    {
      "inputs": [
        {
          "internalType": "uint256",
          "name": "user1",
          "type": "uint256"
        },
        {
          "internalType": "uint256",
          "name": "user2",
          "type": "uint256"
        },
        {
          "internalType": "uint256",
          "name": "balance",
          "type": "uint256"
        }
      ],
      "name": "createAcc",
      "outputs": [],
      "stateMutability": "nonpayable",
      "type": "function"
    },
    {
      "inputs": [
        {
          "internalType": "uint256",
          "name": "user1",
          "type": "uint256"
        },
        {
          "internalType": "uint256",
          "name": "user2",
          "type": "uint256"
        }
      ],
      "name": "closeAccount",
      "outputs": [],
      "stateMutability": "nonpayable",
      "type": "function"
    },
    {
      "inputs": [
        {
          "internalType": "uint256",
          "name": "fromUser",
          "type": "uint256"
        },
        {
          "internalType": "uint256",
          "name": "toUser",
          "type": "uint256"
        },
        {
          "internalType": "uint256",
          "name": "amount",
          "type": "uint256"
        }
      ],
      "name": "sendAmount",
      "outputs": [],
      "stateMutability": "nonpayable",
      "type": "function"
    },
    {
      "inputs": [],
      "name": "resetState",
      "outputs": [],
      "stateMutability": "nonpayable",
      "type": "function"
    }
  ],
  "bytecode": "0x608060405234801561001057600080fd5b50611fe8806100206000396000f3fe608060405234801561001057600080fd5b50600436106100935760003560e01c80633f3078df116100665780633f3078df146101475780634aae1a5414610163578063b548348114610193578063bd45d6eb146101af578063f9e19fa5146101cb57610093565b8063140bf2cd146100985780631c57333e146100c8578063213baccf146100e4578063365b98b214610115575b600080fd5b6100b260048036038101906100ad919061184d565b6101d5565b6040516100bf9190611bb0565b60405180910390f35b6100e260048036038101906100dd91906117f9565b610206565b005b6100fe60048036038101906100f9919061184d565b610320565b60405161010c929190611c39565b60405180910390f35b61012f600480360381019061012a91906117d0565b610351565b60405161013e93929190611bfb565b60405180910390f35b610161600480360381019061015c9190611889565b610410565b005b61017d600480360381019061017891906117d0565b61085d565b60405161018a9190611ad5565b60405180910390f35b6101ad60048036038101906101a89190611889565b610889565b005b6101c960048036038101906101c4919061184d565b610ad0565b005b6101d3610c1d565b005b600260205281600052604060002081815481106101f157600080fd5b90600052602060002001600091509150505481565b60008083815260200190815260200160002060020160009054906101000a900460ff1615610269576040517f08c379a000000000000000000000000000000000000000000000000000000000815260040161026090611b70565b60405180910390fd5b6040518060600160405280838152602001828152602001600115158152506000808481526020019081526020016000206000820151816000015560208201518160010190805190602001906102bf92919061164f565b5060408201518160020160006101000a81548160ff0219169083151502179055509050507f4728104627c0775370e4d3628beda1b22b0bef17538f721f8e4d92976ce208238282604051610314929190611bcb565b60405180910390a15050565b6001602052816000526040600020602052806000526040600020600091509150508060000154908060010154905082565b600060205280600052604060002060009150905080600001549080600101805461037a90611e53565b80601f01602080910402602001604051908101604052809291908181526020018280546103a690611e53565b80156103f35780601f106103c8576101008083540402835291602001916103f3565b820191906000526020600020905b8154815290600101906020018083116103d657829003601f168201915b5050505050908060020160009054906101000a900460ff16905083565b60008084815260200190815260200160002060020160009054906101000a900460ff16801561045e575060008083815260200190815260200160002060020160009054906101000a900460ff165b61049d576040517f08c379a000000000000000000000000000000000000000000000000000000000815260040161049490611b90565b60405180910390fd5b600081116104e0576040517f08c379a00000000000000000000000000000000000000000000000000000000081526004016104d790611b10565b60405180910390fd5b60006104ec8484610e30565b90506000815111610532576040517f08c379a000000000000000000000000000000000000000000000000000000000815260040161052990611b50565b60405180910390fd5b60005b600182516105439190611d9d565b81101561065f576000828281518110610585577f4e487b7100000000000000000000000000000000000000000000000000000000600052603260045260246000fd5b6020026020010151905060008360018461059f9190611d16565b815181106105d6577f4e487b7100000000000000000000000000000000000000000000000000000000600052603260045260246000fd5b602002602001015190508460016000848152602001908152602001600020600083815260200190815260200160002060000154101561064a576040517f08c379a000000000000000000000000000000000000000000000000000000000815260040161064190611af0565b60405180910390fd5b5050808061065790611e85565b915050610535565b5060005b600182516106719190611d9d565b81101561081b5760008282815181106106b3577f4e487b7100000000000000000000000000000000000000000000000000000000600052603260045260246000fd5b602002602001015190506000836001846106cd9190611d16565b81518110610704577f4e487b7100000000000000000000000000000000000000000000000000000000600052603260045260246000fd5b602002602001015190508460016000848152602001908152602001600020600083815260200190815260200160002060000160008282546107459190611d9d565b925050819055508460016000848152602001908152602001600020600083815260200190815260200160002060010160008282546107839190611d16565b925050819055508460016000838152602001908152602001600020600084815260200190815260200160002060010160008282546107c19190611d9d565b925050819055508460016000838152602001908152602001600020600084815260200190815260200160002060000160008282546107ff9190611d16565b925050819055505050808061081390611e85565b915050610663565b507f1e151dd6bc0242a3019d69b988162be68c468af40f1c082b37f4134f5987b4a684848460405161084f93929190611c62565b60405180910390a150505050565b600080600083815260200190815260200160002060020160009054906101000a900460ff169050919050565b60008084815260200190815260200160002060020160009054906101000a900460ff1680156108d7575060008083815260200190815260200160002060020160009054906101000a900460ff165b610916576040517f08c379a000000000000000000000000000000000000000000000000000000000815260040161090d90611b90565b60405180910390fd5b600060016000858152602001908152602001600020600084815260200190815260200160002060000154111561094b57610acb565b60405180604001604052806002836109639190611d6c565b81526020016002836109759190611d6c565b815250600160008581526020019081526020016000206000848152602001908152602001600020600082015181600001556020820151816001015590505060405180604001604052806002836109cb9190611d6c565b81526020016002836109dd9190611d6c565b815250600160008481526020019081526020016000206000858152602001908152602001600020600082015181600001556020820151816001015590505060026000848152602001908152602001600020829080600181540180825580915050600190039060005260206000200160009091909190915055600260008381526020019081526020016000208390806001815401808255809150506001900390600052602060002001600090919091909150557f40bb7bf4c7f281ed15816d9be583f4a9c800fde6f80ff9d5bd68015b03f5695b838383604051610ac293929190611c62565b60405180910390a15b505050565b60006001600084815260200190815260200160002060008381526020019081526020016000206000015411610b3a576040517f08c379a0000000000000000000000000000000000000000000000000000000008152600401610b3190611b30565b60405180910390fd5b6001600083815260200190815260200160002060008281526020019081526020016000206000808201600090556001820160009055505060016000828152602001908152602001600020600083815260200190815260200160002060008082016000905560018201600090555050610bc460026000848152602001908152602001600020826114f0565b610be060026000838152602001908152602001600020836114f0565b7fefbc56ab5dac29c99b9169c4c6fb4dc3c4ab6e793711f81bd6a426a99b9d77fc8282604051610c11929190611c39565b60405180910390a15050565b60005b6103e8811015610e015760008082815260200190815260200160002060020160009054906101000a900460ff1615610dee57600080828152602001908152602001600020600080820160009055600182016000610c7d91906116d5565b6002820160006101000a81549060ff02191690555050600060026000838152602001908152602001600020805480602002602001604051908101604052809291908181526020018280548015610cf257602002820191906000526020600020905b815481526020019060010190808311610cde575b5050505050905060005b8151811015610dcc576000828281518110610d40577f4e487b7100000000000000000000000000000000000000000000000000000000600052603260045260246000fd5b602002602001015190506001600085815260200190815260200160002060008281526020019081526020016000206000808201600090556001820160009055505060016000828152602001908152602001600020600085815260200190815260200160002060008082016000905560018201600090555050508080610dc490611e85565b915050610cfc565b50600260008381526020019081526020016000206000610dec9190611715565b505b8080610df990611e85565b915050610c20565b507f5a2a4a53daceb14c3d178e92f0da1bf67a87465998a163d815182375fea5c26360405160405180910390a1565b606060006103e867ffffffffffffffff811115610e76577f4e487b7100000000000000000000000000000000000000000000000000000000600052604160045260246000fd5b604051908082528060200260200182016040528015610ea45781602001602082028036833780820191505090505b50905060006103e867ffffffffffffffff811115610eeb577f4e487b7100000000000000000000000000000000000000000000000000000000600052604160045260246000fd5b604051908082528060200260200182016040528015610f195781602001602082028036833780820191505090505b50905060006103e867ffffffffffffffff811115610f60577f4e487b7100000000000000000000000000000000000000000000000000000000600052604160045260246000fd5b604051908082528060200260200182016040528015610f8e5781602001602082028036833780820191505090505b50905060008060005b6103e881101561101a577fffffffffffffffffffffffffffffffffffffffffffffffffffffffffffffffff858281518110610ffb577f4e487b7100000000000000000000000000000000000000000000000000000000600052603260045260246000fd5b602002602001018181525050808061101290611e85565b915050610f97565b508783828061102890611e85565b935081518110611061577f4e487b7100000000000000000000000000000000000000000000000000000000600052603260045260246000fd5b60200260200101818152505060018589815181106110a8577f4e487b7100000000000000000000000000000000000000000000000000000000600052603260045260246000fd5b60200260200101901515908115158152505060005b818310156112e95760008484806110d390611e85565b95508151811061110c577f4e487b7100000000000000000000000000000000000000000000000000000000600052603260045260246000fd5b60200260200101519050888114156111285760019150506112e9565b60005b60026000838152602001908152602001600020805490508110156112e2576000600260008481526020019081526020016000208281548110611196577f4e487b7100000000000000000000000000000000000000000000000000000000600052603260045260246000fd5b906000526020600020015490508881815181106111dc577f4e487b7100000000000000000000000000000000000000000000000000000000600052603260045260246000fd5b60200260200101516112ce576001898281518110611223577f4e487b7100000000000000000000000000000000000000000000000000000000600052603260045260246000fd5b6020026020010190151590811515815250508288828151811061126f577f4e487b7100000000000000000000000000000000000000000000000000000000600052603260045260246000fd5b6020026020010181815250508087868061128890611e85565b9750815181106112c1577f4e487b7100000000000000000000000000000000000000000000000000000000600052603260045260246000fd5b6020026020010181815250505b5080806112da90611e85565b91505061112b565b50506110bd565b806112ff576060809750505050505050506114ea565b60006001905060008990505b8a811461136857818061131d90611e85565b925050868181518110611359577f4e487b7100000000000000000000000000000000000000000000000000000000600052603260045260246000fd5b6020026020010151905061130b565b60008267ffffffffffffffff8111156113aa577f4e487b7100000000000000000000000000000000000000000000000000000000600052604160045260246000fd5b6040519080825280602002602001820160405280156113d85781602001602082028036833780820191505090505b5090508a915060006001846113ed9190611d9d565b90505b60008111156114955782828281518110611433577f4e487b7100000000000000000000000000000000000000000000000000000000600052603260045260246000fd5b602002602001018181525050888381518110611478577f4e487b7100000000000000000000000000000000000000000000000000000000600052603260045260246000fd5b60200260200101519250808061148d90611e29565b9150506113f0565b508b816000815181106114d1577f4e487b7100000000000000000000000000000000000000000000000000000000600052603260045260246000fd5b6020026020010181815250508099505050505050505050505b92915050565b60005b828054905081101561164a5781838281548110611539577f4e487b7100000000000000000000000000000000000000000000000000000000600052603260045260246000fd5b9060005260206000200154141561163757826001848054905061155c9190611d9d565b81548110611593577f4e487b7100000000000000000000000000000000000000000000000000000000600052603260045260246000fd5b90600052602060002001548382815481106115d7577f4e487b7100000000000000000000000000000000000000000000000000000000600052603260045260246000fd5b90600052602060002001819055508280548061161c577f4e487b7100000000000000000000000000000000000000000000000000000000600052603160045260246000fd5b6001900381819060005260206000200160009055905561164a565b808061164290611e85565b9150506114f3565b505050565b82805461165b90611e53565b90600052602060002090601f01602090048101928261167d57600085556116c4565b82601f1061169657805160ff19168380011785556116c4565b828001600101855582156116c4579182015b828111156116c35782518255916020019190600101906116a8565b5b5090506116d19190611736565b5090565b5080546116e190611e53565b6000825580601f106116f35750611712565b601f0160209004906000526020600020908101906117119190611736565b5b50565b50805460008255906000526020600020908101906117339190611736565b50565b5b8082111561174f576000816000905550600101611737565b5090565b600061176661176184611cca565b611c99565b90508281526020810184848401111561177e57600080fd5b611789848285611de7565b509392505050565b600082601f8301126117a257600080fd5b81356117b2848260208601611753565b91505092915050565b6000813590506117ca81611f9b565b92915050565b6000602082840312156117e257600080fd5b60006117f0848285016117bb565b91505092915050565b6000806040838503121561180c57600080fd5b600061181a858286016117bb565b925050602083013567ffffffffffffffff81111561183757600080fd5b61184385828601611791565b9150509250929050565b6000806040838503121561186057600080fd5b600061186e858286016117bb565b925050602061187f858286016117bb565b9150509250929050565b60008060006060848603121561189e57600080fd5b60006118ac868287016117bb565b93505060206118bd868287016117bb565b92505060406118ce868287016117bb565b9150509250925092565b6118e181611dd1565b82525050565b60006118f282611cfa565b6118fc8185611d05565b935061190c818560208601611df6565b61191581611f8a565b840191505092915050565b600061192d601c83611d05565b91507f496e73756666696369656e742062616c616e636520696e2070617468000000006000830152602082019050919050565b600061196d601e83611d05565b91507f416d6f756e74206d7573742062652067726561746572207468616e20302e00006000830152602082019050919050565b60006119ad601283611d05565b91507f4e6f206163636f756e74206578697374732e00000000000000000000000000006000830152602082019050919050565b60006119ed602283611d05565b91507f4e6f2076616c6964207061746820666f756e64206265747765656e207573657260008301527f732e0000000000000000000000000000000000000000000000000000000000006020830152604082019050919050565b6000611a53601883611d05565b91507f5573657220616c726561647920726567697374657265642e00000000000000006000830152602082019050919050565b6000611a93601183611d05565b91507f5573657273206d7573742065786973742e0000000000000000000000000000006000830152602082019050919050565b611acf81611ddd565b82525050565b6000602082019050611aea60008301846118d8565b92915050565b60006020820190508181036000830152611b0981611920565b9050919050565b60006020820190508181036000830152611b2981611960565b9050919050565b60006020820190508181036000830152611b49816119a0565b9050919050565b60006020820190508181036000830152611b69816119e0565b9050919050565b60006020820190508181036000830152611b8981611a46565b9050919050565b60006020820190508181036000830152611ba981611a86565b9050919050565b6000602082019050611bc56000830184611ac6565b92915050565b6000604082019050611be06000830185611ac6565b8181036020830152611bf281846118e7565b90509392505050565b6000606082019050611c106000830186611ac6565b8181036020830152611c2281856118e7565b9050611c3160408301846118d8565b949350505050565b6000604082019050611c4e6000830185611ac6565b611c5b6020830184611ac6565b9392505050565b6000606082019050611c776000830186611ac6565b611c846020830185611ac6565b611c916040830184611ac6565b949350505050565b6000604051905081810181811067ffffffffffffffff82111715611cc057611cbf611f5b565b5b8060405250919050565b600067ffffffffffffffff821115611ce557611ce4611f5b565b5b601f19601f8301169050602081019050919050565b600081519050919050565b600082825260208201905092915050565b6000611d2182611ddd565b9150611d2c83611ddd565b9250827fffffffffffffffffffffffffffffffffffffffffffffffffffffffffffffffff03821115611d6157611d60611ece565b5b828201905092915050565b6000611d7782611ddd565b9150611d8283611ddd565b925082611d9257611d91611efd565b5b828204905092915050565b6000611da882611ddd565b9150611db383611ddd565b925082821015611dc657611dc5611ece565b5b828203905092915050565b60008115159050919050565b6000819050919050565b82818337600083830152505050565b60005b83811015611e14578082015181840152602081019050611df9565b83811115611e23576000848401525b50505050565b6000611e3482611ddd565b91506000821415611e4857611e47611ece565b5b600182039050919050565b60006002820490506001821680611e6b57607f821691505b60208210811415611e7f57611e7e611f2c565b5b50919050565b6000611e9082611ddd565b91507fffffffffffffffffffffffffffffffffffffffffffffffffffffffffffffffff821415611ec357611ec2611ece565b5b600182019050919050565b7f4e487b7100000000000000000000000000000000000000000000000000000000600052601160045260246000fd5b7f4e487b7100000000000000000000000000000000000000000000000000000000600052601260045260246000fd5b7f4e487b7100000000000000000000000000000000000000000000000000000000600052602260045260246000fd5b7f4e487b7100000000000000000000000000000000000000000000000000000000600052604160045260246000fd5b6000601f19601f8301169050919050565b611fa481611ddd565b8114611faf57600080fd5b5056fea2646970667358221220cad92171184cc6180795cb723ecdcebc1978b24509b11e6db15e7ef8c542684964736f6c63430008000033",
  "immutableReferences": {},
  "source": "// SPDX-License-Identifier: MIT\r\npragma solidity ^0.8.0;\r\n\r\ncontract JointAccountDApp {\r\n    struct User {\r\n        uint256 id;\r\n        string name;\r\n        bool exists;\r\n    }\r\n    \r\n    struct Account {\r\n        uint256 user1Balance;\r\n        uint256 user2Balance;\r\n    }\r\n    \r\n    mapping(uint256 => User) public users;\r\n    mapping(uint256 => mapping(uint256 => Account)) public jointAccounts;\r\n    mapping(uint256 => uint256[]) public userConnections;\r\n    \r\n    uint256 private constant MAX_USERS = 1000;\r\n    \r\n    // Events\r\n    event UserRegistered(uint256 id, string name);\r\n    event AccountCreated(uint256 user1, uint256 user2, uint256 balance);\r\n    event AccountClosed(uint256 user1, uint256 user2);\r\n    event AmountTransferred(uint256 fromUser, uint256 toUser, uint256 amount);\r\n    event StateReset();\r\n    \r\n    // Register a new user\r\n    function registerUser(uint256 id, string memory userName) public {\r\n        require(!users[id].exists, \"User already registered.\");\r\n        users[id] = User(id, userName, true);\r\n        emit UserRegistered(id, userName);\r\n    }\r\n    \r\n    // Check if a user exists\r\n    function checkAccountExists(uint256 id) public view returns (bool) {\r\n        return users[id].exists;\r\n    }\r\n    \r\n    // Create a joint account between two users\r\n    function createAcc(uint256 user1, uint256 user2, uint256 balance) public {\r\n        require(users[user1].exists && users[user2].exists, \"Users must exist.\");\r\n        \r\n        // Exit early if the account already exists\r\n        if (jointAccounts[user1][user2].user1Balance > 0) {\r\n            return;\r\n        }\r\n        \r\n        // Create a new account and initialize balances\r\n        jointAccounts[user1][user2] = Account(balance / 2, balance / 2);\r\n        jointAccounts[user2][user1] = Account(balance / 2, balance / 2);\r\n        \r\n        // Update user connections\r\n        userConnections[user1].push(user2);\r\n        userConnections[user2].push(user1);\r\n        \r\n        emit AccountCreated(user1, user2, balance);\r\n    }\r\n\r\n    \r\n    // Internal function to remove a connection\r\n    function removeConnection(uint256[] storage connections, uint256 target) internal {\r\n        for (uint256 i = 0; i < connections.length; i++) {\r\n            if (connections[i] == target) {\r\n                connections[i] = connections[connections.length - 1];\r\n                connections.pop();\r\n                break;\r\n            }\r\n        }\r\n    }\r\n    \r\n    // Close a joint account between two users\r\n    function closeAccount(uint256 user1, uint256 user2) public {\r\n        require(jointAccounts[user1][user2].user1Balance > 0, \"No account exists.\");\r\n        delete jointAccounts[user1][user2];\r\n        delete jointAccounts[user2][user1];\r\n        removeConnection(userConnections[user1], user2);\r\n        removeConnection(userConnections[user2], user1);\r\n        emit AccountClosed(user1, user2);\r\n    }\r\n    \r\n    // Find the shortest path using BFS\r\n    function findShortestPath(uint256 start, uint256 end) internal view returns (uint256[] memory) {\r\n        bool[] memory visited = new bool[](MAX_USERS);\r\n        uint256[] memory parent = new uint256[](MAX_USERS);\r\n        uint256[] memory queue = new uint256[](MAX_USERS);\r\n        \r\n        uint256 front = 0;\r\n        uint256 rear = 0;\r\n        \r\n        // Initialize parent array\r\n        for (uint256 i = 0; i < MAX_USERS; i++) {\r\n            parent[i] = type(uint256).max;\r\n        }\r\n        \r\n        // Start BFS\r\n        queue[rear++] = start;\r\n        visited[start] = true;\r\n        \r\n        bool pathFound = false;\r\n        while (front < rear) {\r\n            uint256 currentNode = queue[front++];\r\n            \r\n            if (currentNode == end) {\r\n                pathFound = true;\r\n                break;\r\n            }\r\n            \r\n            for (uint256 i = 0; i < userConnections[currentNode].length; i++) {\r\n                uint256 neighbor = userConnections[currentNode][i];\r\n                if (!visited[neighbor]) {\r\n                    visited[neighbor] = true;\r\n                    parent[neighbor] = currentNode;\r\n                    queue[rear++] = neighbor;\r\n                }\r\n            }\r\n        }\r\n        \r\n        if (!pathFound) {\r\n            uint256[] memory emptyPath;\r\n            return emptyPath;\r\n        }\r\n        \r\n        // Count path length\r\n        uint256 pathLength = 1;\r\n        uint256 current = end;\r\n        while (current != start) {\r\n            pathLength++;\r\n            current = parent[current];\r\n        }\r\n        \r\n        // Construct path\r\n        uint256[] memory path = new uint256[](pathLength);\r\n        current = end;\r\n        for (uint256 i = pathLength - 1; i > 0; i--) {\r\n            path[i] = current;\r\n            current = parent[current];\r\n        }\r\n        path[0] = start;\r\n        \r\n        return path;\r\n    }\r\n    \r\n    // Transfer amount between users along a valid path\r\n    function sendAmount(uint256 fromUser, uint256 toUser, uint256 amount) public {\r\n        require(users[fromUser].exists && users[toUser].exists, \"Users must exist.\");\r\n        require(amount > 0, \"Amount must be greater than 0.\");\r\n        \r\n        uint256[] memory path = findShortestPath(fromUser, toUser);\r\n        require(path.length > 0, \"No valid path found between users.\");\r\n        \r\n        // Verify sufficient balance along the path\r\n        for (uint256 i = 0; i < path.length - 1; i++) {\r\n            uint256 currentUser = path[i];\r\n            uint256 nextUser = path[i + 1];\r\n            require(\r\n                jointAccounts[currentUser][nextUser].user1Balance >= amount,\r\n                \"Insufficient balance in path\"\r\n            );\r\n        }\r\n        \r\n        // Transfer amount along the path\r\n        for (uint256 i = 0; i < path.length - 1; i++) {\r\n            uint256 currentUser = path[i];\r\n            uint256 nextUser = path[i + 1];\r\n            \r\n            jointAccounts[currentUser][nextUser].user1Balance -= amount;\r\n            jointAccounts[currentUser][nextUser].user2Balance += amount;\r\n            \r\n            // Update reverse mapping\r\n            jointAccounts[nextUser][currentUser].user2Balance -= amount;\r\n            jointAccounts[nextUser][currentUser].user1Balance += amount;\r\n        }\r\n        \r\n        emit AmountTransferred(fromUser, toUser, amount);\r\n    }\r\n    \r\n    // Reset the entire state (for testing only)\r\n    function resetState() public {\r\n        for (uint256 i = 0; i < MAX_USERS; i++) {\r\n            if (users[i].exists) {\r\n                delete users[i];\r\n                uint256[] memory connections = userConnections[i];\r\n                for (uint256 j = 0; j < connections.length; j++) {\r\n                    uint256 connectedUser = connections[j];\r\n                    delete jointAccounts[i][connectedUser];\r\n                    delete jointAccounts[connectedUser][i];\r\n                }\r\n                delete userConnections[i];\r\n            }\r\n        }\r\n        emit StateReset();\r\n    }\r\n}",
  "sourcePath": "D:\\Block chain\\joint-account-dapp\\contracts\\JointAccountDApp.sol",
  "compiler": {
    "name": "solc",
    "version": "0.8.0+commit.c7dfd78e.Emscripten.clang"
  },
  "schemaVersion": "3.4.16",
  "updatedAt": "2024-11-26T08:59:42.676Z",
  "networkType": "ethereum",
  "devdoc": {
    "kind": "dev",
    "methods": {},
    "version": 1
  },
  "userdoc": {
    "kind": "user",
    "methods": {},
    "version": 1
  }
}